:020000040800F2
:10000000000003206D5D0008351E0008371E000843
:10001000391E00083B1E00083D1E000800000000BD
:100020000000000000000000000000004151000836
:100030003F1E000800000000E15100084552000882
:10004000BD5D0008BD5D0008BD5D0008BD5D000828
:10005000BD5D0008BD5D0008BD5D0008BD5D000818
:10006000BD5D0008BD5D0008BD5D0008BD5D000808
:10007000BD5D0008BD5D0008411E0008BD5D0008B3
:10008000BD5D0008511E0008BD5D0008BD5D000893
:10009000BD5D0008BD5D0008BD5D0008BD5D0008D8
:1000A000BD5D0008611E0008BD5D0008BD5D000863
:1000B000BD5D0008BD5D0008BD5D0008BD5D0008B8
:1000C000BD5D0008BD5D0008BD5D0008BD5D0008A8
:1000D000BD5D0008BD5D0008BD5D0008BD5D000898
:1000E000BD5D0008BD5D0008BD5D0008BD5D000888
:1000F000BD5D0008BD5D0008BD5D0008BD5D000878
:10010000BD5D0008BD5D0008BD5D0008BD5D000867
:10011000BD5D0008BD5D0008BD5D0008BD5D000857
:10012000711E0008BD5D0008BD5D0008BD5D0008D2
:10013000BD5D0008BD5D0008BD5D0008BD5D000837
:10014000BD5D0008BD5D0008BD5D0008BD5D000827
:10015000BD5D0008BD5D0008BD5D0008811E000892
:10016000BD5D0008BD5D0008BD5D0008BD5D000807
:10017000BD5D0008BD5D0008BD5D00080000000019
:10018000BD5D0008BD5D0008911E0008A11E0008AD
:10019000BD5D0008BD5D0008BD5D0008BD5D0008D7
:0C01A0000000000000000000BD5D000831
:1001C00010B5054C237833B9044B13B10448AFF391
:1001D00000800123237010BDC00900200000000032
:1001E0001CBE000808B5034B1BB103490348AFF31D
:1001F000008008BD00000000C40900201CBE0008EB
:1002000053B94AB9002908BF00281CBF4FF0FF317D
:100210004FF0FF3000F074B9ADF1080C6DE904CE79
:1002200000F006F8DDF804E0DDE9022304B07047D1
:100230002DE9F047089D04468E46002B4DD18A4299
:10024000944669D9B2FA82F252B101FA02F3C2F1CC
:10025000200120FA01F10CFA02FC41EA030E94405D
:100260004FEA1C48210CBEFBF8F61FFA8CF708FB7E
:1002700016E341EA034306FB07F199420AD91CEB56
:10028000030306F1FF3080F01F81994240F21C8188
:10029000023E63445B1AA4B2B3FBF8F008FB1033D0
:1002A00044EA034400FB07F7A7420AD91CEB040405
:1002B00000F1FF3380F00A81A74240F207816444D5
:1002C000023840EA0640E41B00261DB1D44000235A
:1002D000C5E900433146BDE8F0878B4209D9002DBE
:1002E00000F0EF800026C5E9000130463146BDE848
:1002F000F087B3FA83F6002E4AD18B4202D38242B2
:1003000000F2F980841A61EB030301209E46002D60
:10031000E0D0C5E9004EDDE702B9FFDEB2FA82F2B5
:10032000002A40F09280A1EB0C014FEA1C471FFA13
:100330008CFE0126200CB1FBF7F307FB131140EAFA
:1003400001410EFB03F0884208D91CEB010103F1C7
:10035000FF3802D2884200F2CB804346091AA4B289
:10036000B1FBF7F007FB101144EA01440EFB00FE5D
:10037000A64508D91CEB040400F1FF3102D2A645C2
:1003800000F2BB800846A4EB0E0440EA03409CE761
:10039000C6F12007B34022FA07FC4CEA030C20FA0E
:1003A00007F401FA06F31C43F9404FEA1C4900FA2E
:1003B00006F3B1FBF9F8200C1FFA8CFE09FB1811AB
:1003C00040EA014108FB0EF0884202FA06F20BD91E
:1003D0001CEB010108F1FF3A80F08880884240F26E
:1003E0008580A8F102086144091AA4B2B1FBF9F0B2
:1003F00009FB101144EA014100FB0EFE8E4508D9AD
:100400001CEB010100F1FF346CD28E456AD9023831
:10041000614440EA0840A0FB0294A1EB0E01A14216
:10042000C846A64656D353D05DB1B3EB080261EB84
:100430000E0101FA07F722FA06F3F1401F43C5E95E
:10044000007100263146BDE8F087C2F12003D84094
:100450000CFA02FC21FA03F3914001434FEA1C47D6
:100460001FFA8CFEB3FBF7F007FB10360B0C43EAC8
:10047000064300FB0EF69E4204FA02F408D91CEB78
:10048000030300F1FF382FD29E422DD90238634476
:100490009B1B89B2B3FBF7F607FB163341EA034116
:1004A00006FB0EF38B4208D91CEB010106F1FF3865
:1004B00016D28B4214D9023E6144C91A46EA00465C
:1004C00038E72E46284605E70646E3E61846F8E6EE
:1004D0004B45A9D2B9EB020864EB0C0E0138A3E737
:1004E0004646EAE7204694E74046D1E7D0467BE718
:1004F000023B614432E7304609E76444023842E790
:10050000704700BF844641EA000313F003036DD136
:10051000403A41D351F8043B40F8043B51F8043BC6
:1005200040F8043B51F8043B40F8043B51F8043BCD
:1005300040F8043B51F8043B40F8043B51F8043BBD
:1005400040F8043B51F8043B40F8043B51F8043BAD
:1005500040F8043B51F8043B40F8043B51F8043B9D
:1005600040F8043B51F8043B40F8043B51F8043B8D
:1005700040F8043B51F8043B40F8043B51F8043B7D
:1005800040F8043B51F8043B40F8043B51F8043B6D
:1005900040F8043B403ABDD2303211D351F8043B0D
:1005A00040F8043B51F8043B40F8043B51F8043B4D
:1005B00040F8043B51F8043B40F8043B103AEDD2BC
:1005C0000C3205D351F8043B40F8043B043AF9D20D
:1005D000043208D0D2071CBF11F8013B00F8013BE0
:1005E00001D30B8803806046704700BF082A13D3ED
:1005F0008B078DD010F003038AD0C3F10403D21A05
:10060000DB071CBF11F8013B00F8013B80D331F838
:10061000023B20F8023B7BE7043AD9D3013A11F8B8
:10062000013B00F8013BF9D20B7803704B78437023
:100630008B78837060467047000000000000000067
:1006400001F0FF01102A2BDB10F0070F08D010F883
:10065000013B013A8B422DD010F0070F42B3F6D187
:10066000F0B441EA012141EA014122F007047FF0A0
:1006700000070023F0E80256083C85EA010586EAF7
:10068000010685FA47F5A3FA87F586FA47F6A5FA33
:1006900087F68EB9EED1F0BC01F0FF0102F007023F
:1006A00032B110F8013B013A83EA010313B1F8D1EA
:1006B0000020704701387047002D06BF35460338CB
:1006C000073815F0010F07D1013015F4807F02BF04
:1006D000013015F4C03F0130F0BC0138704700BF55
:1006E000000000000000000000000000000000000A
:1006F00000000000000000000000000000000000FA
:1007000090F800F06DE9024520F007016FF0000C51
:1007100010F0070491F820F040F049804FF00004F9
:100720006FF00700D1E9002391F840F000F10800D4
:1007300082FA4CF2A4FA8CF283FA4CF3A2FA8CF30C
:100740004BBBD1E9022382FA4CF200F10800A4FA73
:100750008CF283FA4CF3A2FA8CF3E3B9D1E90423C7
:1007600082FA4CF200F10800A4FA8CF283FA4CF3FE
:10077000A2FA8CF37BB9D1E9062301F1200182FAB8
:100780004CF200F10800A4FA8CF283FA4CF3A2FABE
:100790008CF3002BC6D0002A04BF04301A4612BACC
:1007A000B2FA82F2FDE8024500EBD2007047D1E9CF
:1007B000002304F00305C4F100004FEAC50514F05E
:1007C000040F91F840F00CFA05F562EA05021CBF2F
:1007D00063EA050362464FF00004A9E781F0004197
:1007E00002E000BF83F0004330B54FEA41044FEA16
:1007F000430594EA050F08BF90EA020F1FBF54EAB1
:10080000000C55EA020C7FEA645C7FEA655C00F04C
:10081000E2804FEA5454D4EB5555B8BF6D420CDD1D
:100820002C4480EA020281EA030382EA000083EAA0
:10083000010180EA020281EA0303362D88BF30BD40
:1008400011F0004F4FEA01314FF4801C4CEA113196
:1008500002D0404261EB410113F0004F4FEA0333F5
:100860004CEA133302D0524263EB430394EA050F80
:1008700000F0A780A4F10104D5F1200E0DDB02FAEF
:100880000EFC22FA05F2801841F1000103FA0EF283
:10089000801843FA05F359410EE0A5F120050EF149
:1008A000200E012A03FA0EFC28BF4CF0020C43FA7A
:1008B00005F3C01851EBE37101F0004507D54FF087
:1008C000000EDCF1000C7EEB00006EEB0101B1F5D7
:1008D000801F1BD3B1F5001F0CD349085FEA30001D
:1008E0004FEA3C0C04F101044FEA445212F5800F28
:1008F00080F09A80BCF1004F08BF5FEA500C50F1C5
:10090000000041EB045141EA050130BD5FEA4C0CA7
:10091000404141EB0101013C28BFB1F5801FE9D204
:1009200091F0000F04BF01460020B1FA81F308BF27
:100930002033A3F10B03B3F120020CDA0C3208DDF3
:1009400002F1140CC2F10C0201FA0CF021FA02F1CE
:100950000CE002F11402D8BFC2F1200C01FA02F13E
:1009600020FA0CFCDCBF41EA0C019040E41AA2BF63
:1009700001EB0451294330BD6FEA04041F3C1CDA2B
:100980000C340EDC04F11404C4F1200220FA04F04B
:1009900001FA02F340EA030021FA04F345EA0301F5
:1009A00030BDC4F10C04C4F1200220FA02F001FAB7
:1009B00004F340EA0300294630BD21FA04F0294639
:1009C00030BD94F0000F83F4801306BF81F48011D2
:1009D0000134013D4EE77FEA645C18BF7FEA655C45
:1009E00029D094EA050F08BF90EA020F05D054EA17
:1009F000000C04BF1946104630BD91EA030F1EBF1C
:100A00000021002030BD5FEA545C05D1400049411F
:100A100028BF41F0004130BD14F580043CBF01F512
:100A2000801130BD01F0004545F0FE4141F47001F8
:100A30004FF0000030BD7FEA645C1ABF19461046D3
:100A40007FEA655C1CBF0B46024650EA013406BFD4
:100A500052EA033591EA030F41F4002130BD00BF93
:100A600090F0000F04BF0021704730B54FF4806450
:100A700004F132044FF000054FF0000150E700BFD1
:100A800090F0000F04BF0021704730B54FF4806430
:100A900004F1320410F0004548BF40424FF000011D
:100AA0003EE700BF42004FEAE2014FEA31014FEA60
:100AB00002701FBF12F07F4393F07F4F81F06051AF
:100AC000704732F07F4208BF704793F07F4F04BFFA
:100AD00041F40021704730B54FF4607401F00045D7
:100AE00021F000411CE700BF50EA010208BF704737
:100AF00030B54FF000050AE050EA010208BF704728
:100B000030B511F0004502D5404261EB41014FF490
:100B1000806404F132045FEA915C3FF4D8AE4FF098
:100B200003025FEADC0C18BF03325FEADC0C18BF7B
:100B3000033202EBDC02C2F1200300FA03FC20FACC
:100B400002F001FA03FE40EA0E0021FA02F1144419
:100B5000BDE600BF70B54FF0FF0C4CF4E06C1CEA32
:100B600011541DBF1CEA135594EA0C0F95EA0C0FA3
:100B700000F0DEF82C4481EA030621EA4C5123EA16
:100B80004C5350EA013518BF52EA033541F4801145
:100B900043F4801338D0A0FB02CE4FF00005E1FBF8
:100BA00002E506F00042E0FB03E54FF00006E1FB42
:100BB00003569CF0000F18BF4EF0010EA4F1FF0485
:100BC000B6F5007F64F5407404D25FEA4E0E6D41C5
:100BD00046EB060642EAC62141EA55514FEAC520D6
:100BE00040EA5E504FEACE2EB4F1FD0C88BFBCF552
:100BF000E06F1ED8BEF1004F08BF5FEA500E50F103
:100C0000000041EB045170BD06F0004646EA0101C8
:100C100040EA020081EA0301B4EB5C04C2BFD4EBFA
:100C20000C0541EA045170BD41F480114FF0000EF3
:100C3000013C00F3AB8014F1360FDEBF002001F061
:100C4000004170BDC4F10004203C35DA0C341BDCDB
:100C500004F11404C4F1200500FA05F320FA04F0AD
:100C600001FA05F240EA020001F0004221F00041E1
:100C700010EBD37021FA04F642EB06015EEA430E54
:100C800008BF20EAD37070BDC4F10C04C4F1200584
:100C900000FA04F320FA05F001FA04F240EA020037
:100CA00001F0004110EBD37041F100015EEA430E08
:100CB00008BF20EAD37070BDC4F1200500FA05F228
:100CC0004EEA020E20FA04F301FA05F243EA0203A7
:100CD00021FA04F001F0004121FA04F220EA0200B6
:100CE00000EBD3705EEA430E08BF20EAD37070BDFC
:100CF00094F0000F0FD101F00046400041EB0101DC
:100D000011F4801F08BF013CF7D041EA060195F0BD
:100D1000000F18BF704703F00046520043EB030377
:100D200013F4801F08BF013DF7D043EA0603704764
:100D300094EA0C0F0CEA135518BF95EA0C0F0CD06F
:100D400050EA410618BF52EA4306D1D181EA0301B5
:100D500001F000414FF0000070BD50EA410606BFAF
:100D60001046194652EA430619D094EA0C0F02D1F4
:100D700050EA013613D195EA0C0F05D152EA033639
:100D80001CBF104619460AD181EA030101F0004157
:100D900041F0FE4141F470014FF0000070BD41F0A0
:100DA000FE4141F4780170BD70B54FF0FF0C4CF47A
:100DB000E06C1CEA11541DBF1CEA135594EA0C0F99
:100DC00095EA0C0F00F0A7F8A4EB050481EA030EE6
:100DD00052EA03354FEA013100F088804FEA0333CD
:100DE0004FF0805545EA131343EA12634FEA02229B
:100DF00045EA111545EA10654FEA00260EF000415C
:100E00009D4208BF964244F1FD0404F5407402D2AD
:100E10005B084FEA3202B61A65EB03055B084FEA3E
:100E200032024FF480104FF4002CB6EB020E75EB3B
:100E3000030E22BFB61A754640EA0C005B084FEA63
:100E40003202B6EB020E75EB030E22BFB61A7546E0
:100E500040EA5C005B084FEA3202B6EB020E75EB2B
:100E6000030E22BFB61A754640EA9C005B084FEAA3
:100E70003202B6EB020E75EB030E22BFB61A7546B0
:100E800040EADC0055EA060E18D04FEA051545EA9F
:100E900016754FEA06164FEAC30343EA52734FEA48
:100EA000C2025FEA1C1CC0D111F4801F0BD141EAC1
:100EB00000014FF000004FF0004CB6E711F4801F26
:100EC00004BF01430020B4F1FD0C88BFBCF5E06F06
:100ED0003FF6AFAEB5EB030C04BFB6EB020C5FEA16
:100EE000500C50F1000041EB045170BD0EF0004E6B
:100EF0004EEA113114EB5C04C2BFD4EB0C0541EA9D
:100F0000045170BD41F480114FF0000E013C90E699
:100F100045EA060E8DE60CEA135594EA0C0F08BF5D
:100F200095EA0C0F3FF43BAF94EA0C0F0AD150EA5C
:100F300001347FF434AF95EA0C0F7FF425AF1046EF
:100F400019462CE795EA0C0F06D152EA03353FF417
:100F5000FDAE1046194622E750EA410618BF52EA94
:100F600043067FF4C5AE50EA41047FF40DAF52EA68
:100F700043057FF4EBAE12E74FF0FF3C06E000BF05
:100F80004FF0010C02E000BF4FF0010C4DF804CD12
:100F90004FEA410C7FEA6C5C4FEA430C18BF7FEAD2
:100FA0006C5C1BD001B050EA410C0CBF52EA430C00
:100FB00091EA030F02BF90EA020F0020704710F180
:100FC000000F91EA030F58BF994208BF90422CBF0F
:100FD000D8176FEAE37040F0010070474FEA410C08
:100FE0007FEA6C5C02D150EA013C07D14FEA430C26
:100FF0007FEA6C5CD6D152EA033CD3D05DF8040B97
:10100000704700BF8446104662468C4619466346C8
:1010100000E000BF01B5FFF7B7FF002848BF10F19F
:10102000000F01BD4DF808EDFFF7F4FF0CBF0120E4
:1010300000205DF808FB00BF4DF808EDFFF7EAFF60
:1010400034BF012000205DF808FB00BF4DF808ED1B
:10105000FFF7E0FF94BF012000205DF808FB00BF10
:101060004DF808EDFFF7CEFF94BF012000205DF89A
:1010700008FB00BF4DF808EDFFF7C4FF34BF0120A7
:1010800000205DF808FB00BF4FEA410C7FEA6C5C72
:1010900002D150EA013C0AD14FEA430C7FEA6C5C72
:1010A00002D152EA033C02D14FF0000070474FF0EA
:1010B000010070474FEA410212F5001215D211D516
:1010C0006FF47873B3EB625212D94FEAC12343F045
:1010D000004343EA505311F0004F23FA02F018BFC7
:1010E000404270474FF00000704750EA013005D190
:1010F00011F0004008BF6FF0004070474FF0000053
:10110000704700BF08B5002202F0DAF808BD0246B9
:10111000012002E002FB00F019464B1EDBB2002961
:10112000F8D1704700B583B08DF8070079B101227E
:101130004FF40071094802F0C3F80A2301220DF1AF
:101140000701074802F001FD03B05DF804FB00222F
:101150004FF40071014802F0B3F8EEE700040240DA
:101160003811002010B50230C4B2A1F150000021A6
:10117000C0B2FFF7D7FF2009002140F01000FFF7B1
:10118000D1FF002104F0F000FFF7CCFF10BD0000FC
:1011900038B500250DE00B4B03EBC4030121585D6E
:1011A000FFF7C0FF0134E4B214F0800FF3D0013533
:1011B000EDB2072D05D829460020FFF7D3FF002404
:1011C000F2E738BDDC0900200246002022E0144985
:1011D00001EBC3014FF0FF0C01F800C00133DBB29B
:1011E00013F0800F14D1012AF1D03AB90C4901EB68
:1011F000C3014FF0000C01F800C0EFE7084901EB14
:10120000C30111F800C06FEA0C0C01F800C0E5E75B
:101210000130C0B2072801D80023E1E7704700BFC2
:10122000DC090020002821DB00291FDB3F291DDC11
:101230000B4600291BDBC3F3C703D1F1000C01F0FF
:1012400007010CF0070C58BFCCF10001C9B2012A0C
:101250000FD0022A19D04FF0010C0CFA01FC114AF0
:1012600002EBC000C15C21EA0C01C1547047CB1DE8
:10127000E1E74FF0010C0CFA01FC0A4A02EBC00056
:10128000C15C41EA0C01C15470474FF0010C0CFAEB
:1012900001FC044A02EBC000C15C81EA0C01C154AC
:1012A000704700BFDC0900202DE9F0412DED028BD5
:1012B00082B00446884616469DF8287099421DD093
:1012C00090422FD05B1A07EE903AF8EEE77A131AA5
:1012D00007EE103AB8EEC77AC7EE878A07EE901A83
:1012E000B8EE678A07EE900AF8EEE77A67EEA87A1A
:1012F00038EE678A90423CD914463AE0904204D8CE
:101300000546B4420BD8344609E01546F9E73A469B
:101310004FFA88F168B2FFF785FF0135EDB2A542BB
:10132000F5D928E0994204D80D4698450AD8984640
:1013300008E01D46F9E73A4669B260B2FFF772FF6E
:101340000135EDB24545F6D915E007EE904AF8EEC5
:10135000E77A67EEA87A77EE887AFCEEE77ACDED49
:10136000017A3A469DF9041060B2FFF75BFF013441
:10137000E4B2B442E9D902B0BDEC028BBDE8F08121
:101380002DE9F04701EB41014F00FFB200EB4000B7
:101390004FEA80085FFA88F8203A5FFA82FA4446FA
:1013A0004FF0000920E0002261B278B2FFF73AFF67
:1013B0006D00EDB20134E4B2A4EB08030C2B0CD0A9
:1013C0000136F6B2072E0BD815F0800FEBD00122B4
:1013D00061B278B2FFF726FFEAE70137FFB2444671
:1013E00009F101095FFA89F9B9F10B0F08D80AEB85
:1013F0004A03044A02EB830313F809500026E1E78D
:10140000BDE8F0878CBE00082DE9F047814688468C
:1014100017469A469DF82050002634461CE0BAF143
:10142000000F07D104EB08012022C9B24846FFF79C
:10143000A7FF0FE004EB08013022C9B24846FFF7CE
:101440009FFF07E0303204EB0801D2B2C9B2484630
:10145000FFF796FF0134E4B2AC421CD2291BC9B29B
:101460000139C9B20A20FFF752FEB7FBF0F00B4A70
:10147000A2FB003C4FEADC0C0CEB8C0CA0EB4C0C00
:101480005FFA8CF2002EDDD16B1E9C42DADA002A64
:10149000C5D00126D6E7BDE8F08700BFCDCCCCCCC7
:1014A000F8B506460C461746002501E00135EDB2B9
:1014B0007A5D5AB121463046FFF762FF0134E4B24B
:1014C000142CF3D90136F6B20024EFE7F8BD0CB4C2
:1014D00030B5A3B005460C46002102917C2203A83A
:1014E00004F098FC6B1EDBB2032B02D8142C00D83E
:1014F00024B923B0BDE8304002B0704727AA01925A
:10150000269902A804F0D8FCC4F1150322AA52FAC5
:1015100083F3002203F8802C02AA21462846FFF715
:10152000BFFFE6E710B5464C00224FF4806120462D
:1015300001F0C6FE4FF4FA7000F0F8FF01224FF4FC
:101540008061204601F0BCFE0021AE20FFF7EAFDDD
:1015500000210846FFF7E6FD00211020FFF7E2FD1D
:1015600000214020FFF7DEFD00218120FFF7DAFD9A
:101570000021CF20FFF7D6FD0021A120FFF7D2FDEB
:101580000021C820FFF7CEFD0021A620FFF7CAFDED
:101590000021A820FFF7C6FD00213F20FFF7C2FD74
:1015A0000021D320FFF7BEFD00210846FFF7BAFD5A
:1015B0000021D520FFF7B6FD00218020FFF7B2FD06
:1015C0000021D920FFF7AEFD0021F120FFF7AAFD91
:1015D0000021DA20FFF7A6FD00211220FFF7A2FD6F
:1015E0000021DB20FFF79EFD00214020FFF79AFD40
:1015F00000212020FFF796FD00210220FFF792FD39
:1016000000218D20FFF78EFD00211420FFF78AFDB9
:101610000021A420FFF786FD0021A620FFF782FD10
:101620000021AF20FFF77EFD0021AF20FFF77AFDFC
:101630000020FFF7C9FD00210846FFF793FD10BD0C
:101640000004024032EE612A31EE601AC2EE017AE5
:1016500030EE600A20EE270A70EE211AFDEEE11A44
:1016600011EE903A18B2704710B5094C002120468F
:1016700002F010FF0421204602F00CFF0821204652
:1016800002F008FF0C21204602F004FF10BD00BF4D
:101690006C12002010B5044600EE101A9FED0F2AC0
:1016A000DFED0F1A9FED0F1ADFED0F0AB8EE400ABB
:1016B000FFF7C8FF412C08D0422C09D0432C0AD098
:1016C000442C04D1094B586301E0084B186410BD49
:1016D000064BD863FBE7054B9863F8E700007A43B5
:1016E000000048420000344300000000000C0040AD
:1016F00000B585B00023009301930293039315482E
:10170000154A02604FF480324260836003610376C1
:1017100080F82030C362114A8262C3600122C26134
:1017200080F83030426100F0AFFF68B906230093C3
:1017300001230193002302936946064801F0D2F881
:1017400028B905B05DF804FB00F030FAEEE700F0D0
:101750002DFAF6E7DC0D0020002001400100000F0B
:1017600030B589B000230393049305930693079340
:10177000026803F1804303F590339A4201D009B027
:1017800030BD04460025019503F58C335A6C42F4B4
:1017900080725A645A6C02F480720192019A029526
:1017A0001A6B42F001021A631B6B03F001030293F0
:1017B000029B402303930323049303A9104801F0E1
:1017C00081FC1048104B036045608560C5604FF494
:1017D000806303614FF4805343614FF4804383611E
:1017E0004FF48073C3610562456201F0B9FA18B91C
:1017F000044BA3639C63C2E700F0D8F9F8E700BF8D
:1018000000000240240E00201064024008B50D487C
:101810000D4B03600323436000238360C3604FF4D8
:10182000102202614FF40012426103764376837600
:10183000C3760377437701F02BF900B908BD00F0B8
:10184000B5F9FBE7880E00200064004008B50D489C
:101850000D4B03600323436000238360C3604FF498
:10186000102202614FF400124261037643768376C0
:10187000C3760377437701F00BF900B908BD00F098
:1018800095F9FBE7B00E00200068004000B58BB072
:101890000023059306930793089309930368364A38
:1018A000934205D0354A93422DD00BB05DF804FB2E
:1018B000334A136801331360012B17D000230193BF
:1018C000304B1A6B42F008021A631B6B03F00803DB
:1018D0000193019B03230593022206920893092397
:1018E000099305A9284801F0EDFBDEE700230093EA
:1018F000244B1A6C42F000721A641B6C03F00073E4
:101900000093009BDAE7002302931E4B1A6C42F00F
:1019100080621A641B6C03F080630293029B184A76
:10192000136801331360012B18D000230493154B67
:101930001A6B42F002021A631B6B03F0020304935A
:10194000049B602305930223069303230893092332
:10195000099305A90D4801F0B5FBA6E70023039301
:10196000084B1A6C42F000721A641B6C03F000738F
:101970000393039BD9E700BF006400400068004068
:10198000840E002000380240000C02400004024097
:1019900010B582B000240094164B1A6B42F48002FA
:1019A0001A631A6B02F480020092009A01941A6B77
:1019B00042F400121A631B6B03F400130193019BA2
:1019C000224605210E2001F01BF90E2001F050F9EE
:1019D00022460521112001F013F9112001F048F9E8
:1019E00022460521382001F00BF9382001F040F99A
:1019F00002B010BD0038024008B5012003F0FEFA25
:101A0000FBE70000034B0360034B0B608023136074
:101A1000704700BFE4100020E40E002010B596B01F
:101A20001B4C0DF13C0CA646BEE80F00ACE80F00C5
:101A30009EE807008CE8070000210FA803F0A9FA30
:101A4000144B18600DF1200C04F11C0EBEE80F00C1
:101A5000ACE80F009EE807008CE80700002108A80A
:101A600003F097FA0C4B18600DF1040E04F1380CDA
:101A7000BCE80F00AEE80F009CE807008EE8070006
:101A8000002101A803F085FA044B186016B010BDC0
:101A900038BE0008E00E0020D80E0020DC0E00202A
:101AA000F0B58DB000240794089409940A940B941F
:101AB0000094354B1A6B42F010021A631A6B02F055
:101AC00010020092009A01941A6B42F002021A630B
:101AD0001A6B02F002020192019A02941A6B42F010
:101AE00040021A631A6B02F040020292029A0394B7
:101AF0001A6B42F008021A631A6B02F00802039292
:101B0000039A04941A6B42F480721A631A6B02F4FB
:101B100080720492049A05941A6B42F080021A6350
:101B20001A6B02F080020592059A06941A6B42F035
:101B300001021A631B6B03F001030693069B134F0C
:101B400022464FF4C061384601F0BAFB104D2246E0
:101B500040F2FF11284601F0B3FB4FF4C063079336
:101B60000126089609940A9407A9384601F0AAFAB2
:101B700040F2FF130793089609940A9407A9284690
:101B800001F0A0FA0DB0F0BD0038024000040240A0
:101B90000018024008B50268034B9A4200D008BD05
:101BA00000F0B2FCFBE700BF0000014072B6FEE7A8
:101BB00000B595B03022002108A804F02BF90023CD
:101BC0000393049305930693079301931F4A116CA3
:101BD00041F080511164126C02F080520192019A1E
:101BE00002931B4A116841F440411160126802F4EB
:101BF00040420292029A0222089201210B91102186
:101C00000C910E920F9308231093A8231193129214
:101C10000423139308A801F059FB98B90F230393E9
:101C200002230493002305934FF4A05306934FF42B
:101C300080530793052103A801F096FD20B915B044
:101C40005DF804FBFFF7B2FFFFF7B0FF003802407A
:101C50000070004008B500F03DFCFFF7A9FFFFF75A
:101C60001FFFFFF795FEFFF743FDFFF7CFFDFFF7DF
:101C7000EDFD00F011F800F07DF900F04FFA00F0F2
:101C8000C3FA00F0F5FA00F00DFB00F025FBFFF7BA
:101C9000C5FE03F079F9FEE708B50E480E4B036068
:101CA0004FF48273436000238360C3600361436128
:101CB0004FF4007282610822C26103624362836250
:101CC0000A23C36201F0E2FE00B908BDFFF76EFF10
:101CD000FBE700BF3811002000300140F0B589B0AB
:101CE00000230393049305930693079302681E4B06
:101CF0009A4201D009B0F0BD0024009403F584336A
:101D00005A6C42F480525A645A6C02F48052009227
:101D1000009A01941A6B42F002021A631A6B02F0E5
:101D200002020192019A02941A6B42F001021A63B4
:101D30001B6B03F001030293029B182303930227FA
:101D40000497032606960525079503A9074801F081
:101D5000B9F980230393049705940696079503A980
:101D6000034801F0AFF9C5E700300140000402402C
:101D70000000024000B583B0002200920D4B596C68
:101D800041F480415964596C01F4804100910099FB
:101D90000192196C41F0805119641B6C03F080535F
:101DA0000193019B0F216FF0010000F029FF03B0A8
:101DB0005DF804FB0038024010B588B001460022EF
:101DC000192000F01DFF192000F052FF002401949B
:101DD000144B5A6C42F001025A645B6C03F001032D
:101DE0000193019B02A903A801F094FD01F082FD7B
:101DF00043000D48A0FB03239B0C013B0B480C4AFE
:101E0000026040F2E732C26043600461846002F025
:101E1000A7F910B1012008B010BD044802F036F84F
:101E2000F9E700BF0038024083DE1B439011002019
:101E300000000140FEE7FEE7FEE7FEE7FEE7704731
:101E400008B5024801F050F808BD00BFB4120020E8
:101E500008B5024801F048F808BD00BF141300207F
:101E600008B5024802F05AF808BD00BF90110020E2
:101E700008B5024801F038F808BD00BF240E002064
:101E800008B5024802F020FE08BD00BF7413002010
:101E900008B5024802F018FE08BD00BFB8130020C4
:101EA00008B5024802F010FE08BD00BFFC13002078
:101EB0000120704708B503F083FF162303604FF03D
:101EC000FF3008BD08B54FF0FF31FFF7F3FFFEE725
:101ED00070B50C461646002506E0AFF3008021469B
:101EE00001F8010B01350C46B542F6DB304670BDFA
:101EF00070B50C461646002504E014F8010BAFF34C
:101F000000800135B542F8DB304670BD08B50346A8
:101F10000B4A126842B10A4A106803446A46934267
:101F200006D8074A136008BD054A06491160F2E762
:101F300003F046FF0C2303604FF0FF30F3E700BFD0
:101F4000D8110020E85100204FF0FF3070474FF4C7
:101F500000534B60002070470120704700207047FD
:101F6000034AD2F8883043F47003C2F888307047CF
:101F700000ED00E000B587B00023029303930493C3
:101F800005930093019315484FF08042026040F2A0
:101F90004732426083606322C2600361836102F062
:101FA000DFF890B94FF48053029302A90B4802F076
:101FB000E2F968B90023009301936946074802F0EB
:101FC000EBFA40B907B05DF804FBFFF7EFFDE9E776
:101FD000FFF7ECFDEEE7FFF7E9FDF3E72412002041
:101FE00082B00368B3F1804F04D00F4A93420ED001
:101FF00002B07047002300930C4B1A6C42F00102B0
:102000001A641B6C03F001030093009BF0E70023AC
:102010000193064B1A6C42F008021A641B6C03F021
:1020200008030193019BE3E7000C004000380240E5
:102030000268094B9A4200D0704782B00023019396
:10204000064B1A6C42F040021A641B6C03F040030A
:102050000193019B02B07047001800400038024015
:1020600030B589B000230393049305930693079337
:102070000368254A934204D0244A93422CD009B0E5
:1020800030BD00250095224B1A6B42F480721A6312
:102090001A6B02F480720092009A01951A6B42F05A
:1020A00080021A631B6B03F080030193019B0123E1
:1020B000039302240494079403A9164801F002F83C
:1020C0004FF4E0530393049405950695079403A9F0
:1020D000114800F0F7FFD2E7002302930C4B1A6B74
:1020E00042F080021A631B6B03F080030293029B91
:1020F00040230393022304930923079303A906486B
:1021000000F0E0FFBBE700BF000C004000180040FB
:102110000038024000200240001C024000B58FB091
:1021200000230A930B930C930D9308930993019347
:102130000293039304930593069307933048314A1F
:10214000026040F247324260836040F2CF72C26068
:102150000361836102F004F8002839D14FF4805301
:102160000A930AA9264802F006F9002833D1244828
:1021700002F022F8002831D100230893099308A91E
:102180001F4802F009FA60BB60230193002202920B
:102190000392059201A91A4802F072F820BB0422AA
:1021A0000DEB0201164802F06BF800BB082201A9F2
:1021B000134802F065F8E8B90C2201A9104802F0B2
:1021C0005FF8D0B90E48FFF74BFF0FB05DF804FB86
:1021D000FFF7ECFCC2E7FFF7E9FCC8E7FFF7E6FC16
:1021E000CAE7FFF7E3FCCFE7FFF7E0FCD7E7FFF72D
:1021F000DDFCDBE7FFF7DAFCDEE7FFF7D7FCE1E722
:102200006C120020000C004000B589B0002301933F
:102210000293039304930593069307931248134A7A
:10222000026053224260836040F2F312C260036195
:10223000836101F0C1FF80B9602301930022029203
:102240000392059201A9084802F01AF840B906481D
:10225000FFF706FF09B05DF804FBFFF7A7FCEBE70B
:10226000FFF7A4FCF3E700BFDC11002000180040DA
:1022700008B50A480A4B03604FF4E133436000237A
:102280008360C36003610C2242618361C36102F019
:10229000F5FA00B908BDFFF789FCFBE7B813002089
:1022A0000078004008B50A480A4B03604FF4E13358
:1022B000436000238360C36003610C224261836139
:1022C000C36102F0DBFA00B908BDFFF76FFCFBE762
:1022D000FC130020007C004008B50A480A4B03604C
:1022E0004FF4E133436000238360C36003610C2239
:1022F00042618361C36102F0C1FA00B908BDFFF712
:1023000055FCFBE7741300200014014030B58DB07C
:10231000044600230793089309930A930B930368D9
:10232000624A934208D0624A93424ED0614A934235
:1023300000F090800DB030BD002501955E4B1A6C09
:1023400042F080421A641A6C02F080420192019AB3
:1023500002951A6B42F010021A631B6B03F0100314
:102360000293029B4FF4C073079302230893032345
:102370000A9308230B9307A9504800F0A3FE504886
:10238000504B03604FF0206343608560C5604FF49D
:1023900080630361456185614FF48073C3614FF4CD
:1023A00040330362456200F0DBFC58B9444BA36341
:1023B0009C6300220521522000F022FC522000F0F4
:1023C00057FCB7E7FFF7F2FBF0E7002503953A4B20
:1023D0001A6C42F000421A641A6C02F00042039236
:1023E000039A04951A6B42F010021A631B6B03F0F8
:1023F00010030493049B03230793022208920A9379
:1024000008230B9307A92D4800F05CFE2E482F4BA4
:1024100003604FF0206343608560C5604FF48063C4
:10242000036145618561C5614FF4403303624562D4
:1024300000F096FC58B9244BA3639C63002205214D
:10244000532000F0DDFB532000F012FC72E7FFF791
:10245000ADFBF0E700240594174B5A6C42F02002C4
:102460005A645A6C02F020020592059A06941A6B7F
:1024700042F040021A631B6B03F040030693069B75
:102480004FF4844307930223089303230A930823FA
:102490000B9307A90E4800F015FE224605214720A0
:1024A00000F0AEFB472000F0E3FB43E7007800407C
:1024B000007C00400014014000380240001002403F
:1024C000B41200205860024014130020A0600240A3
:1024D0000018024008B50B4B1A6842F400721A60EB
:1024E0001A6842F480621A601A6842F480721A60B4
:1024F000032000F073FB0F20FFF75EFCFFF73AFCB0
:10250000002008BD003C0240034A1168034B1B78C1
:102510000B441360704700BF4014002004000020EB
:10252000014B1868704700BF4014002038B50446BE
:10253000FFF7F6FF0546B4F1FF3F02D0044B1B78CE
:102540001C44FFF7EDFF401BA042FAD338BD00BF8B
:10255000040000204A4B5A6822F440325A605A68FC
:1025600041680A435A600268536823F480735360D9
:1025700002685368016943EA0123536002685368A3
:1025800023F0407353600268536881680B435360C3
:102590000268936823F40063936002689368C168DB
:1025A0000B439360826A374B9A4257D00268936814
:1025B00023F07063936002689368816A0B439360B1
:1025C0000268936823F04053936002689368C16A7D
:1025D0000B4393600268936823F0020393600268E0
:1025E0009368017E43EA4103936090F82030002B0A
:1025F0003FD00268536843F4006353600268536835
:1026000023F46043536001684B68426A013A43EA2D
:1026100042334B600268D36A23F47003D3620168CB
:10262000CB6AC269013A43EA0253CB6202689368FB
:1026300023F4007393600268936890F8301043EAC3
:10264000412393600268936823F480639360026877
:102650009368416943EA81239360704702689368F5
:1026600023F0706393600268936823F04053936093
:10267000B0E70268536823F400635360CAE700BF01
:10268000002301400100000F38B310B50446036C6D
:1026900043B1236C13F0100F0BD00120002384F8FA
:1026A0003C3010BDFFF75CF80023636484F83C30D5
:1026B000EFE7236C23F4885323F0020343F0020373
:1026C00023642046FFF746FF00206064236C23F05C
:1026D000030343F001032364E0E701207047000097
:1026E00082B00023019390F83C30012B00F08980E8
:1026F000012380F83C3003689A6812F0010F13D16F
:102700009A6842F001029A60414B1B68414AA2FB61
:1027100003239B0C03EB4303019302E0019B013B6A
:102720000193019B002BF9D10268936813F0010F0C
:102730005CD0036C23F4E06323F0010343F4807363
:102740000364536813F4806F05D0036C23F4405383
:1027500043F480530364036C13F4805F1BD0436C19
:1027600023F006034364002380F83C306FF022031B
:102770001360294B5B6813F01F0F27D10368274AAA
:10278000934211D002F58072934207D0244A9342BB
:1027900014D0002033E000234364E4E702F5007224
:1027A000526812F01F0FF1D19A6812F0405F2AD1DF
:1027B0009A6842F080429A60002020E002F5807220
:1027C000526812F0100FEFD0002018E00368134A8F
:1027D000934201D0002012E09A6812F0405F14D1B9
:1027E0009A6842F080429A60002008E0036C43F04F
:1027F00010030364436C43F001034364002002B000
:1028000070470220FBE70020F9E70020F7E700BF50
:102810000000002083DE1B43002301400020014014
:102820000022014070B504460D4603689A6812F410
:10283000806F03D09B6813F4807F19D1FFF770FE7F
:10284000064623681A6812F0020F20D1B5F1FF3F47
:10285000F7D0B5B923681B6813F0020FF1D1236CD0
:1028600043F004032364002384F83C30032032E067
:10287000036C43F020030364002380F83C30012004
:1028800029E0FFF74DFE801BA842DAD9E2E76FF09E
:1028900012021A60236C43F40073236423689A685D
:1028A00012F0405F16D1207EB0B9DA6A12F4700FD0
:1028B00003D09B6813F4806F0DD1236C23F48073D5
:1028C0002364236C13F4805F05D1236C43F0010370
:1028D000236400E0002070BD0020FCE70368D86C92
:1028E0007047000030B482B00023019390F83C3070
:1028F000012B00F0C080012380F83C300B68092BCD
:1029000041D90468E2689BB203EB43031E3B4FF0DE
:10291000070C0CFA03F322EA0303E3600468E2689D
:102920000B8803EB43031E3B8D6805FA03F3134347
:10293000E3604B68062B3DD80468626B03EB8303AE
:10294000053B4FF01F0C0CFA03F322EA0303636309
:102950000468626B4B6803EB8303053BB1F800C06E
:102960000CFA03F3134363630268444B9A4251D059
:102970000268424B9A425AD0002380F83C301846F5
:1029800002B030BC7047046822699BB203EB43037A
:102990004FF0070C0CFA03F322EA030323610468E7
:1029A00022690B8803EB43038D6805FA03F3134395
:1029B0002361BEE70C2B16D805682A6B03EB830353
:1029C000233B1F2404FA03F322EA03032B63056865
:1029D0002A6B4B6803EB8303233B0C8804FA03F355
:1029E00013432B63C0E70568EA6A03EB8303413BAB
:1029F0001F2404FA03F322EA0303EB620568EA6A80
:102A00004B6803EB8303413B0C8804FA03F3134345
:102A1000EB62A9E70B68122BAAD1194B5A6822F472
:102A200000025A605A6842F480025A60A0E70B68BC
:102A3000144A934201D0112B9ED1114B5A6822F4B3
:102A400080025A605A6842F400025A600A680D4BCC
:102A50009A4291D10C4B1B680C4AA2FB03239B0C9E
:102A600003EB83035B000193019B002B84D0019B4C
:102A7000013B0193F8E7022082E700BF00200140FC
:102A800000230140120000100000002083DE1B43E1
:102A9000002800F0A18038B5044690F82030D3B16A
:102AA0002268136843F001031360FFF739FD054600
:102AB00023685A6812F0010F10D1FFF731FD401B57
:102AC0000A28F5D9636A43F400336362052384F866
:102AD0002030012038BDFEF7D9FEE1E71A6822F068
:102AE00002021A60FFF71CFD054623685A6812F0BF
:102AF000020F0DD0FFF714FD401B0A28F5D9636AB9
:102B000043F400336362052384F820300120E1E7B9
:102B1000227E012A3DD01A6822F080021A60637E6C
:102B2000012B3BD02268136823F040031360A37E7F
:102B3000012B39D02268136823F020031360E37E51
:102B4000012B37D02268136843F010031360237FF2
:102B5000012B35D02268136823F008031360637FCC
:102B6000012B33D02268136823F004031360A36899
:102B7000E268134322691343626913436268013AAE
:102B800021681343CB6100206062012384F8203068
:102B9000A0E71A6842F080021A60C0E72268136852
:102BA00043F040031360C2E72268136843F0200338
:102BB0001360C4E72268136823F010031360C6E7AC
:102BC0002268136843F008031360C8E7226813689B
:102BD00043F004031360CAE701207047074AD36833
:102BE00023F4E0631B041B0C000200F4E0600343C9
:102BF00043F0BF6343F40033D360704700ED00E05F
:102C000000B5194BDB68C3F30223C3F1070CBCF119
:102C1000040F28BF4FF0040C03F1040EBEF1060FA1
:102C200018D9033B4FF0FF3E0EFA0CFC21EA0C01D1
:102C300099400EFA03F322EA0303194300280BDB41
:102C40000901C9B200F1604000F5614080F800134D
:102C50005DF804FB0023E5E700F00F000901C9B2AD
:102C6000024B1954F4E700BF00ED00E014ED00E062
:102C7000002807DB00F01F02400901239340024AAD
:102C800042F82030704700BF00E100E010B4036854
:102C9000D9B210390C4AA2FB014212090B4CA25CBA
:102CA000C2655F2909D923F47F7323F0030304333A
:102CB0008365806D5DF8044B704723F47F7323F0C8
:102CC00003038365F5E700BFABAAAAAA40C30008C7
:102CD000836A826992B9012B0AD0022B02D00BB110
:102CE00000207047C36A13F0807F28D1002070470E
:102CF000C36AB3F1C07F24D000207047B2F5005FF3
:102D000009D0022B25D9032B25D1C36A13F0807F6C
:102D100023D100207047032B03D8DFE803F014040D
:102D2000140A00207047C36A13F0807F0DD1002081
:102D30007047C36AB3F1C07F09D0002070470120FB
:102D40007047012070470120704701207047012023
:102D50007047012070470020704701207047000035
:102D600070B50446FFF7DCFB002C5BD00546022360
:102D700084F83530002384F834302268136823F057
:102D80000103136023681A6812F0010F0AD0FFF7DD
:102D9000C7FB431B052BF5D920236365032084F86B
:102DA000350070BD1A68204810406168A2680A4367
:102DB000E1680A4321690A4361690A43A1690A4338
:102DC000E1690A43216A0A430243616A04291ED069
:102DD0001A602668756925F00705636A1D43042B90
:102DE00007D1A36A1D43E36A1BB12046FFF770FFBA
:102DF00090B975612046FFF749FFE26D3F2393408C
:102E0000836000206065012384F83530C9E7E16AFA
:102E1000206B01430A43DBE740236365012084F80C
:102E20003500BEE70120BCE73F8010F070B50446D6
:102E3000866DFFF775FB94F83530DBB2022B06D0B8
:102E400080236365002384F83430012070BD05467B
:102E50002268136823F0160313602268536923F075
:102E600080035361236CE3B12268136823F00803E5
:102E700013602268136823F00103136023681B6842
:102E800013F0010F11D0FFF74BFB431B052BF5D9B6
:102E900020236365032084F83500002384F8343050
:102EA000D4E7A36C002BDFD1E3E7E26D3F2393402F
:102EB000B360012384F83530002084F83400C5E77E
:102EC00090F83530DBB2022B03D08023436501201C
:102ED0007047052380F835300268136823F001033A
:102EE0001360002070470000F0B583B00446002353
:102EF0000193724B1D68724BA3FB0535AD0A876DBC
:102F00003E68C26D08239340334210D003681A68AC
:102F100012F0040F0BD01A6822F004021A60C26D7E
:102F200008239340BB60436D43F001034365E26DAA
:102F300001239340334209D02268526912F0800F76
:102F400004D0BB60636D43F002036365E26D04234C
:102F50009340334209D02268126812F0020F04D065
:102F6000BB60636D43F004036365E26D102393401F
:102F7000334224D02268126812F0080F1FD0BB60C1
:102F800023681A6812F4802F0DD01B6813F4002FE9
:102F900004D1236C9BB12046984710E0A36C73B119
:102FA000204698470BE01A6812F4807F03D11A6814
:102FB00022F008021A60236C0BB120469847E26D9C
:102FC00020239340334255D02268126812F0100F2C
:102FD00050D0BB6094F83530DBB2052B0ED023689F
:102FE0001A6812F4802F33D01B6813F4002F2AD1F3
:102FF000636C002B3ED0204698473BE02268136864
:1030000023F0160313602268536923F08003536191
:10301000236CA3B12268136823F008031360E26DE8
:103020003F239340BB60012384F83530002384F8AC
:103030003430236D002B3FD0204698473CE0A36CF2
:10304000002BE7D1EBE7E36BA3B12046984711E0F3
:103050001A6812F4807F09D11A6822F010021A60EF
:10306000012384F83530002384F83430E36B0BB14E
:1030700020469847636DFBB1636D13F0010F17D0C5
:10308000052384F835302268136823F001031360A8
:10309000019B01330193AB4204D823681B6813F0F2
:1030A000010FF5D1012384F83530002384F8343042
:1030B000E36C0BB12046984703B0F0BD0000002040
:1030C000B5814E1B00230F2B00F2F18070B582B04A
:1030D00061E085685E000324B44025EA0405CC68FD
:1030E000B4402C438460456825EA02054C68C4F36B
:1030F00000129A402A4342605BE0DC08083450F832
:10310000246003F0070295000F22AA4026EA020E6F
:103110000A69AA4042EA0E0240F824205DE0092232
:1031200000E0002202FA0EF22A430234604D45F814
:103130002420604A14686FEA0C0224EA0C054E68E9
:1031400016F4803F01D04CEA04055A4C25606468AF
:1031500002EA04054E6816F4003F01D04CEA04056B
:10316000544C6560A46802EA04054E6816F4801F9A
:1031700001D04CEA04054F4CA560E46822404D683C
:1031800015F4001F01D04CEA04024A4CE2600133FE
:103190000F2B00F28A8001229A400C6804EA020C8C
:1031A00032EA0404F3D14C6804F00304013C012C1E
:1031B0008FD94A6802F00302032A09D0C4685D006F
:1031C0000322AA4024EA02048A68AA402243C26079
:1031D0004A6802F00302022A8FD004684FEA430EC5
:1031E000032202FA0EF224EA02044A6802F0030201
:1031F00002FA0EF2224302604A6812F4403FC6D03F
:10320000002201922C4A546C44F480445464526C61
:1032100002F480420192019A9C08A51C244A52F8AB
:10322000255003F003024FEA820E0F2202FA0EF23B
:1032300025EA0205214A90423FF473AF02F580620D
:10324000904222D002F58062904220D002F5806246
:1032500090421ED002F5806290421CD002F580623E
:1032600090421AD002F58062904218D002F5806236
:10327000904216D002F58062904214D002F580622E
:1032800090423FF44CAF0A224CE701224AE7022267
:1032900048E7032246E7042244E7052242E70622E4
:1032A00040E707223EE708223CE702B070BD7047C6
:1032B00000380140003C014000380240000002405C
:1032C0000AB181617047090481617047002800F0EC
:1032D000E08170B582B00446036813F0010F3BD063
:1032E0009F4B9B6803F00C03042B2CD09C4B9B68DA
:1032F00003F00C03082B21D06368B3F5803F4FD057
:10330000B3F5A02F52D0964B1A6822F480321A607F
:103310001A6822F480221A606368002B50D0FFF7ED
:10332000FFF805468E4B1B6813F4003F14D1FFF7DE
:10333000F7F8401B6428F5D90320B1E1884B5B689E
:1033400013F4800FD8D0864B1B6813F4003F03D0D2
:103350006368002B00F09F81236813F0020F54D0A4
:103360007F4B9B6813F00C0F3ED07D4B9B6803F0A6
:103370000C03082B33D0E368002B68D0794B012273
:103380001A60FFF7CDF80546754B1B6813F0020F66
:1033900054D1FFF7C5F8401B0228F5D903207FE17F
:1033A0006F4A136843F480331360B5E76C4B1A68B7
:1033B00042F480221A601A6842F480321A60ABE745
:1033C000FFF7AEF80546664B1B6813F4003FC3D009
:1033D000FFF7A6F8401B6428F5D9032060E1604B95
:1033E0005B6813F4800FC6D15D4B1B6813F0020FAE
:1033F00003D0E368012B40F05081594A136823F051
:10340000F803216943EAC1031360236813F0080F2E
:1034100042D063696BB3534B0122C3F8802EFFF790
:103420007FF805464E4B5B6F13F0020F34D1FFF768
:1034300077F8401B0228F5D9032031E1484A136888
:1034400023F0F803216943EAC1031360DDE7454B2C
:1034500000221A60FFF764F80546414B1B6813F021
:10346000020FD2D0FFF75CF8401B0228F5D90320E9
:1034700016E13C4B0022C3F8802EFFF751F80546B9
:10348000374B5B6F13F0020F06D0FFF749F8401B74
:103490000228F5D9032003E1236813F0040F77D045
:1034A0002F4B1B6C13F0805F33D1002301932C4B07
:1034B0001A6C42F080521A641B6C03F08053019323
:1034C000019B0125284B1B6813F4807F23D0A36840
:1034D000012B34D0052B38D0214B1A6F22F001027A
:1034E0001A671A6F22F004021A67A368002B3DD0F6
:1034F000FFF716F806461A4B1B6F13F0020F46D162
:10350000FFF70EF8801B41F288339842F3D903206D
:10351000C6E00025D6E7144A136843F480731360AD
:10352000FEF7FEFF0646104B1B6813F4807FCED1DA
:10353000FEF7F6FF801B0228F5D90320B0E0084A09
:10354000136F43F001031367CFE7054B1A6F42F087
:1035500004021A671A6F42F001021A67C5E700BF3A
:10356000003802400000474200700040FEF7D8FFDC
:103570000646524B1B6F13F0020F08D0FEF7D0FF28
:10358000801B41F288339842F3D9032088E0EDB9DB
:10359000A369002B00F08380484A926802F00C0275
:1035A000082A51D0022B17D0454B00221A66FEF78D
:1035B000B7FF0446414B1B6813F0007F42D0FEF773
:1035C000AFFF001B0228F5D9032069E03B4A136CCA
:1035D00023F080531364DBE7394B00221A66FEF7B1
:1035E0009FFF0546354B1B6813F0007F06D0FEF7A2
:1035F00097FF401B0228F5D9032051E0E369226AB6
:103600001343626A43EA8213A26A5208013A43EA08
:103610000243E26A43EA0263284A5360284B0122CC
:103620001A66FEF77DFF0446244B1B6813F0007FEB
:1036300006D1FEF775FF001B0228F5D903202FE005
:1036400000202DE000202BE0012B2BD01B4B5B68D2
:1036500003F48001E269914226D103F03F02216A1E
:103660008A4223D1616A47F6C0721A40B2EB811FC9
:103670001ED103F44031A26A5208013AB1EB024F65
:1036800018D103F07063E26AB3EB026F14D100202B
:1036900006E001207047012002E0012000E0002048
:1036A00002B070BD0120FBE70120F9E70120F7E738
:1036B0000120F5E70120F3E70120F1E7003802409F
:1036C0000000474208B5254B9B6803F00C03042B10
:1036D0003FD0082B3FD1214B5A6802F03F025B6874
:1036E00013F4800F12D01D4B5968C1F388111C4888
:1036F0000023A1FB0001FCF783FD184B5B68C3F3BB
:10370000014301335B00B0FBF3F025E0134B596834
:10371000C1F3881C4FEA4C11B1EB0C006EEB0E0E9E
:103720004FEA8E1343EA90638101091A63EB0E039B
:10373000DB0043EA5173C90011EB0C0C43F10003A9
:10374000990200234FEA8C2041EA9C51FCF758FD76
:10375000D3E7034800E0034808BD00BF003802403B
:1037600040787D010024F400002800F09B8070B5B3
:103770000D4604464F4B1B6803F00F038B4208D2E3
:10378000CBB24C4A1370136803F00F038B4240F026
:103790008B80236813F0020F17D013F0040F04D0AE
:1037A000454A936843F4E0539360236813F0080F8D
:1037B00004D0414A936843F4604393603E4A93685F
:1037C00023F0F003A1680B439360236813F0010F0B
:1037D00032D06368012B21D09A1E012A25D9364A9E
:1037E000126812F0020F61D033498A6822F0030296
:1037F00013438B60FEF794FE06462F4B9B6803F045
:103800000C036268B3EB820F16D0FEF789FE801BB3
:1038100041F288339842F0D9032042E0264A1268E8
:1038200012F4003FE0D101203BE0234A126812F07D
:10383000007FD9D1012034E01E4B1B6803F00F0339
:10384000AB4207D9EAB21B4B1A701B6803F00F0397
:10385000AB422DD1236813F0040F06D0164A9368AB
:1038600023F4E053E1680B439360236813F0080FDF
:1038700007D0114A936823F46043216943EAC103E6
:103880009360FFF71FFF0C4B9B68C3F303130B4AB6
:10389000D35CD8400A4B18600A4B1868FEF78CFAC4
:1038A000002070BD012070470120FAE70120F8E7F1
:1038B0000120F6E7003C02400038024028C300081F
:1038C0000000002008000020014B1868704700BF6E
:1038D0000000002008B5FFF7F7FF044B9B68C3F317
:1038E0008223034AD35CD84008BD00BF00380240A1
:1038F00038C3000808B5FFF7E7FF044B9B68C3F324
:103900004233034AD35CD84008BD00BF00380240B0
:1039100038C300080F2303600B4B9A6802F00302C0
:1039200042609A6802F0F00282609A6802F4E05203
:10393000C2609B68DB0803F4E0530361034B1B6820
:1039400003F00F030B60704700380240003C024058
:103950002DE9F04782B00546884617461E46FEF719
:10396000DFFD0A9B1B1A03EB0609FEF7D9FD824611
:103970002B4B1B68C3F3CB3309FB03F301932B6879
:103980009C6838EA04030CBF4FF0010C4FF0000CA8
:10399000BC4540D0B6F1FF3FF1D0FEF7C1FDA0EB32
:1039A0000A0048450AD2B9F1000F07D0019A02B1C6
:1039B0004A46019B013B01939146E0E72A68536820
:1039C00023F0E00353606B68B3F5827F0BD0AB6AE2
:1039D000B3F5005F14D0012385F85130002385F83A
:1039E0005030032018E0AB68B3F5004F02D0B3F5B8
:1039F000806FECD12A68136823F040031360E6E778
:103A00002A68136823F4005313602A68136843F488
:103A100000531360DFE7002002B0BDE8F08700BF6D
:103A20000000002010B584B00446164B1868164BF1
:103A3000A3FB0030400D4FF47A7303FB00F00390BA
:103A40006368B3F5827F0BD0039BBBB1039B013B43
:103A5000039323689B6813F0800FF5D100200EE0DC
:103A600000920B46002280212046FFF771FF30B103
:103A7000636D43F020036365032000E0002004B081
:103A800010BD00BF00000020819F5E1600285AD0A4
:103A900010B50446436A33B94368B3F5827F05D055
:103AA0000023C36102E00023036143610023A3629A
:103AB00094F85130002B40D0022384F85130226812
:103AC000136823F040031360636803F48273A268F1
:103AD00002F404421343E26802F4006213432269D1
:103AE00002F002021343626902F001021343A26969
:103AF00002F400721343E26902F038021343226AAF
:103B000002F080021343A26A02F4005221681343B8
:103B10000B60638B03F00403626A02F010022168F9
:103B200013434B602268D36923F40063D361002000
:103B30006065012384F8513010BD84F85030204670
:103B4000FEF7CCF8B8E7012070472DE9F04383B0C9
:103B50001D4690F85030012B00F0D1800446884675
:103B60009146012380F85030FEF7DAFC074694F8BE
:103B70005160F6B2012E40F0AF80B8F1000F00F0B6
:103B8000AC80B9F1000F00F0A880032384F8513015
:103B900000236365C4F83080A4F83490A4F836900C
:103BA000A363A387E38763642364A368B3F5004F2B
:103BB0001ED023681A6812F0400F03D11A6842F031
:103BC00040021A60E368B3F5006F1CD0636813B15C
:103BD000B9F1010F52D1226B236812781A73236B4B
:103BE00001332363E38E9BB2013B9BB2E38645E046
:103BF0002268136823F0400313602268136843F4BB
:103C000080431360D5E7636813B1B9F1010F16D192
:103C1000226B23681288DA60236B02332363E38EFE
:103C20009BB2013B9BB2E38609E0FEF779FCC01B27
:103C3000A84202D3B5F1FF3F59D1002D59D0E38EF0
:103C40009BB2002B33D023689A6812F0020FECD09D
:103C5000226B1288DA60236B02332363E38E9BB2FC
:103C6000013B9BB2E386EAE7FEF75AFCC01BA84281
:103C700002D3B5F1FF3F3ED1002D3ED0E38E9BB283
:103C8000ABB123689A6812F0020FEDD0226B127864
:103C90001A73236B01332363B4F836C01FFA8CFC0C
:103CA0000CF1FF3C1FFA8CFCA4F836C0E6E73A465C
:103CB00029462046FFF7B6FE08B120236365A368B6
:103CC00033B901932368DA6801929B680193019BE1
:103CD000636D13B9002600E00226012384F85130F9
:103CE000002384F85030304603B0BDE8F08303264B
:103CF000F3E70326F1E70326EFE70326EDE70226C5
:103D0000F1E7000030B4036A23F001030362036AA1
:103D10004268846924F073040D682C4323F0020C7C
:103D20008B6843EA0C03104DA84203D005F580656B
:103D3000A84205D123F00803CD682B4323F00403E8
:103D4000094DA84203D005F58065A84205D122F4AB
:103D500040724D692A438D692A43426084614A68F2
:103D60004263036230BC70470000014030B4036A14
:103D700023F480730362036A4268C46924F0730CFD
:103D80000C6844EA0C0523F400738C6843EA0423AE
:103D9000114CA04203D004F58064A04206D123F464
:103DA0000063CC6843EA042323F480630A4CA042F6
:103DB00003D004F58064A04207D122F440524C693C
:103DC00042EA04128C6942EA04124260C5614A6800
:103DD000C263036230BC70470000014030B4036A24
:103DE00023F480530362036A4468C26922F4E64202
:103DF0000D6842EA052223F400538D6843EA053337
:103E0000094DA84203D005F58065A84204D124F4E9
:103E100080444D6944EA85144460C2614A68026482
:103E2000036230BC704700BF0000014010B4036A59
:103E3000046A24F001040462846924F0F00C4CEA62
:103E4000021223F00A030B43826103625DF8044B04
:103E5000704710B4046A24F0100404628469036A91
:103E600024F4704C4CEA023223F0A00343EA01131D
:103E7000826103625DF8044B7047836823F070032E
:103E80000B4343F0070383607047000090F83D3018
:103E9000DBB2012B37D1022380F83D300268D368B2
:103EA00043F00103D3600368194A934220D0B3F171
:103EB000804F1DD0A2F57C42934219D002F580625A
:103EC000934215D002F58062934211D002F57842F8
:103ED00093420DD002F57052934209D0A2F594326C
:103EE000934205D01A6842F001021A600020704720
:103EF0009A6802F00702062A07D01A6842F0010207
:103F00001A6000207047012070470020704700BFF2
:103F100000000140704770477047704710B5044675
:103F200003681A6912F0020F11D0DA6812F0020F5A
:103F30000DD06FF002021A610123037703689B69B9
:103F400013F0030F70D0FFF7E6FF002323772368F9
:103F50001A6912F0040F12D0DA6812F0040F0ED0B2
:103F60006FF004021A610223237723689B6913F41C
:103F7000407F5FD02046FFF7CEFF002323772368E2
:103F80001A6912F0080F12D0DA6812F0080F0ED07A
:103F90006FF008021A61042323772368DB6913F0AA
:103FA000030F4ED02046FFF7B6FF00232377236888
:103FB0001A6912F0100F12D0DA6812F0100F0ED03A
:103FC0006FF010021A61082323772368DB6913F46A
:103FD000407F3DD02046FFF79EFF002323772368D4
:103FE0001A6912F0010F03D0DA6812F0010F36D10E
:103FF00023681A6912F0800F03D0DA6812F0800F7C
:1040000034D123681A6912F0400F03D0DA6812F035
:10401000400F32D123681A6912F0200F03D0DA68FA
:1040200012F0200F30D110BDFFF774FF2046FFF7CC
:1040300073FF8AE72046FFF76DFF2046FFF76CFF0E
:104040009BE72046FFF766FF2046FFF765FFACE7DA
:104050002046FFF75FFF2046FFF75EFFBDE76FF0EA
:1040600001021A612046FDF795FDC1E76FF080025D
:104070001A61204600F0D7FAC3E76FF040021A61D8
:104080002046FFF74AFFC5E76FF020021A6120467D
:1040900000F0C8FAC7E700000368304A904212D027
:1040A000B0F1804F0FD0A2F57C4290420BD002F5C8
:1040B0008062904207D002F58062904203D002F500
:1040C0007842904203D123F070034A681343234A95
:1040D00090422AD0B0F1804F27D0A2F57C42904286
:1040E00023D002F5806290421FD002F58062904298
:1040F0001BD002F57842904217D002F570529042E0
:1041000013D002F5806290420FD002F58062904297
:104110000BD0A2F59832904207D002F5806290420F
:1041200003D002F58062904203D123F44073CA6841
:10413000134323F080034A69134303608B68C3620F
:104140000B688362054B984203D003F58063984265
:1041500001D10B69036301234361704700000140F3
:1041600040B310B5044690F83D30F3B1022384F813
:104170003D30214651F8040BFFF78EFF012384F8F0
:10418000463084F83E3084F83F3084F8403084F87C
:10419000413084F8423084F8433084F8443084F865
:1041A000453084F83D30002010BD80F83C30FDF7EC
:1041B00017FFDBE70120704740B310B5044690F8C5
:1041C0003D30F3B1022384F83D30214651F8040B11
:1041D000FFF762FF012384F8463084F83E3084F80C
:1041E0003F3084F8403084F8413084F8423084F81D
:1041F000433084F8443084F8453084F83D30002062
:1042000010BD80F83C30FDF713FFDBE7012070475D
:1042100030B4036A23F010030362036A44688269BE
:1042200022F4E6420D6842EA052223F020038D685D
:1042300043EA0513114DA84203D005F58065A84255
:1042400006D123F08003CD6843EA051323F0400331
:104250000A4DA84203D005F58065A84207D124F491
:1042600040644D6944EA85048D6944EA85044460EC
:1042700082614A688263036230BC7047000001407B
:1042800038B590F83C30012B66D004460D4601232A
:1042900080F83C300C2A5AD8DFE802F00759595907
:1042A0001B5959593059595944000068FFF72AFDE4
:1042B0002268936943F0080393612268936923F0AD
:1042C000040393612268936929690B439361002079
:1042D0003EE00068FFF79CFF2268936943F40063A7
:1042E00093612268936923F48063936122689369E0
:1042F000296943EA01239361002029E00068FFF760
:1043000035FD2268D36943F00803D3612268D3697D
:1043100023F00403D3612268D36929690B43D36175
:10432000002015E00068FFF759FD2268D36943F4C7
:104330000063D3612268D36923F48063D361226868
:10434000D369296943EA0123D361002000E00120F9
:10435000002384F83C3038BD0220FCE710B48468A8
:1043600024F47F4C42EA03220A4342EA0C028260B0
:104370005DF8044B704790F83C30012B78D010B5B5
:104380000446012380F83C30022380F83D30026867
:10439000936823F47F4323F0770393600B68602BCB
:1043A0004CD029D8402B54D00CD9502B22D1CA68DC
:1043B00049680068FFF73AFD50212068FFF75DFD6E
:1043C000002005E0202B0DD009D9302B0AD0012088
:1043D000012384F83D30002384F83C3010BD0BB13C
:1043E000102B05D119462068FFF747FD0020EFE7A5
:1043F0000120EDE70120EBE7B3F5805F34D0B3F5A2
:10440000005F0CD1CB684A6889680068FFF7A6FF97
:104410002268936843F4804393600020D8E7702BB0
:1044200024D1CB684A6889680068FFF797FF226843
:10443000936843F0770393600020C9E7CA6849682E
:104440000068FFF706FD60212068FFF716FD0020D9
:10445000BEE7CA6849680068FFF7E8FC40212068A9
:10446000FFF70BFD0020B3E70020B1E70120AFE725
:104470000220704701F01F01012303FA01FC036AC7
:1044800023EA0C030362036A02FA01F10B4303629D
:104490007047000010B504460846002942D194F840
:1044A0003E30DBB2013B18BF0123002B6ED1002848
:1044B00051D1022384F83E30012201462068FFF7E3
:1044C000D9FF2368334A934203D002F580629342B6
:1044D00003D15A6C42F400425A6423682D4A934235
:1044E00049D0B3F1804F46D0A2F57C42934242D0EE
:1044F00002F5806293423ED002F5806293423AD048
:1045000002F57842934236D002F57052934232D08F
:10451000A2F5943293422ED01A6842F001021A603A
:10452000002032E0042908D008290DD094F8413049
:10453000DBB2013B18BF0123B7E794F83F30DBB291
:10454000013B18BF0123B0E794F84030DBB2013BD8
:1045500018BF0123A9E7042805D0082807D00223A3
:1045600084F84130A8E7022384F83F30A4E702230F
:1045700084F84030A0E79A6802F00702062A07D0C4
:104580001A6842F001021A60002010BD0120FCE709
:104590000020FAE70000014090F83C30012B3DD0AC
:1045A00010B4012380F83C30022380F83D300368CA
:1045B0005A689C6822F0700C0A6842EA0C025A6041
:1045C0000368174A93421AD0B3F1804F17D0A2F56F
:1045D0007C42934213D002F5806293420FD002F5E1
:1045E000806293420BD002F57842934207D002F5E5
:1045F0007052934203D0A2F59432934204D124F036
:1046000080044A6814439C60012380F83D300023F5
:1046100080F83C3018465DF8044B70470220704724
:104620000000014070477047026802F10C0353E834
:10463000003F23F490730C3242E800310029F3D19B
:10464000026802F1140353E8003F23F0010314321F
:1046500042E800310029F3D1036B012B05D0202360
:1046600080F83E30002303637047026802F10C03B8
:1046700053E8003F23F010030C3242E800310029D8
:10468000F3D1ECE790F83D30DBB2212B01D00220D2
:1046900070478368B3F5805F17D0036A5A1C0262C3
:1046A0001A7803685A60C38C9BB2013B9BB2C384E7
:1046B0004BB90268D36823F08003D3600268D368E3
:1046C00043F04003D360002070470369002BE4D11E
:1046D000036A1B880268C3F308035360036A02334A
:1046E0000362E0E738B504460268136923F44053D7
:1046F000C1680B4313618368026913434269134322
:10470000C2691A430168CB6823F4164323F00C03F3
:104710001343CB600268536923F4407381690B43F0
:1047200053610368314A934206D002F58062934296
:1047300002D0FFF7CFF801E0FFF7DCF8E369B3F54B
:10474000004F29D00021031849411B1841F10001F5
:10475000C90041EA5371DB00181863684FEA83020D
:104760004FEA937341F10001FBF74AFD204DA5FB91
:1047700000325109642303FB11031B013233A5FBF3
:1047800003235B0903F0F00202EB011203F00F03B5
:10479000216813448B6038BD0023021843EB0301EA
:1047A000121841F10001C90041EA5271D2001018FB
:1047B00041F10001626892185B41FBF721FD0C4D4D
:1047C000A5FB00325109642303FB1103DB003233E4
:1047D000A5FB03235B095A0002F4F87202EB0112F5
:1047E00003F00703216813448B60D4E700100140F5
:1047F0001F85EB512DE9F84305460F4616469946AD
:10480000DDF820802C68246837EA04030CBF4FF0E1
:10481000010C4FF0000CB4452DD1B8F1FF3FF1D0A1
:10482000B8F1000F05D0FDF77BFEA0EB0900404575
:10483000E8D92A6802F10C0353E8003F23F4D0734F
:104840000C3242E800310029F3D12A6802F1140346
:1048500053E8003F23F00103143242E800310029FD
:10486000F3D1202385F83D3085F83E30002385F8CC
:104870003C30032000E00020BDE8F88358B310B5B9
:10488000044690F83D300BB3242384F83D30226871
:10489000D36823F40053D3602046FFF723FF226838
:1048A000136923F4904313612268536923F02A03A8
:1048B00053612268D36843F40053D360002020641E
:1048C000202384F83D3084F83E3010BD80F83C3021
:1048D000FDF71CFDD8E7012070472DE9F04182B0BB
:1048E0001E4690F83D30DBB2202B54D104460D46D5
:1048F0009046002953D0002A53D090F83C30012B29
:1049000051D0012380F83C3000230364212380F838
:104910003D30FDF705FE0746A4F82480A4F8268064
:10492000A368B3F5805F05D04FF00008002384F83A
:104930003C3012E0236913B14FF00008F6E7A846B7
:104940000025F3E738F8023B2268C3F308035360FD
:10495000E28C92B2013A92B2E284E38C9BB273B1E0
:1049600000963B46002280212046FFF743FFE0B936
:10497000002DE7D015F8012B23685A60E8E7009670
:104980003B46002240212046FFF734FF78B9202320
:1049900084F83D3000E0022002B0BDE8F081012043
:1049A000FAE70120F8E70220F6E70320F4E7032006
:1049B000F2E7704708B50168CA6822F04002CA6091
:1049C000202280F83D20FFF7F4FF002008BD70474B
:1049D000704708B5806B0023C385C384FFF7F8FFD9
:1049E00008BD704790F83E30DBB2222B67D1836858
:1049F000B3F5805F4DD0826AB3F5805F04D0002BA1
:104A000054D10369002B51D103685B681370836A2A
:104A100001338362C38D9BB2013B9BB2C385002BE4
:104A20004FD100B583B00268D36823F02003D36070
:104A30000268D36823F48073D3600268536923F05B
:104A400001035361202380F83E30036B012B33D1E7
:104A500000230363026802F10C0353E8003F23F0D4
:104A600010030C3242E800310029F3D103681A68C0
:104A700012F0100F06D0002201921A6801925B68B2
:104A80000193019B818DFFF7ACFF002003B05DF81F
:104A900004FB0269002AAED1826A03685B68C3F333
:104AA00008031380836A02338362B3E703685B6899
:104AB00003F07F031370AAE7FFF789FFE5E7022001
:104AC000704700207047000030B583B0044602688C
:104AD0001368D068516913F00F0505D113F0200F4A
:104AE00002D010F0200F19D12DB111F0010119D110
:104AF00010F4907F16D1216B01297DD013F0800F27
:104B000003D010F0800F40F0158113F0400F03D058
:104B100010F0400F40F0128103B030BD2046FFF787
:104B200061FFF9E713F0010F06D010F4807F03D086
:104B3000226C42F00102226413F0040F04D019B178
:104B4000226C42F00202226413F0020F04D019B169
:104B5000226C42F00402226413F0080F07D010F018
:104B6000200F00D119B1226C42F008022264226C9D
:104B7000002AD1D013F0200F02D010F0200F29D13D
:104B800023685B6903F04003226C12F0080F00D128
:104B900063B32046FFF748FD23685B6913F0400FBD
:104BA00020D0226802F1140353E8003F23F04003B1
:104BB000143242E800310029F3D1A36B73B1614A8A
:104BC0001A65A06BFEF77CF90028A5D0A06B036DD9
:104BD0009847A1E72046FFF705FFD1E72046FFF7FA
:104BE000F7FE99E72046FFF7F3FE95E72046FFF72B
:104BF000EFFE002323648FE713F0100F3FF47EAF26
:104C000010F0100F3FF47AAF002301931368019363
:104C100053680193019B536913F0400F50D0A26B6E
:104C200013685B689BB2002B3FF476AFA18D99426D
:104C30007FF672AFE385D369B3F5807F37D0226802
:104C400002F10C0353E8003F23F480730C3242E876
:104C500000310029F3D1226802F1140353E8003F28
:104C600023F00103143242E800310029F3D1226815
:104C700002F1140353E8003F23F04003143242E8EA
:104C800000310029F3D1202384F83E300023236330
:104C9000226802F10C0353E8003F23F010030C32AA
:104CA00042E800310029F3D1A06BFEF7BFF8A18DD7
:104CB000E38D9BB2C91A89B22046FFF792FE2BE71B
:104CC000A18DE38D9BB2C91A89B2E38D9BB2002BF3
:104CD0003FF422AF00293FF41FAF226802F10C031A
:104CE00053E8003F23F490730C3242E80030002870
:104CF000F3D1226802F1140353E8003F23F00103CB
:104D0000143242E800300028F3D1202384F83E30EA
:104D100000232363226802F10C0353E8003F23F0D1
:104D200010030C3242E800300028F3D12046FFF790
:104D300058FEF1E62046FFF7A5FCEDE62046FFF71A
:104D400039FEE9E6D349000808B5012000F056F91C
:104D5000FBE7000010B5074C2046FDF7C1FC0A2117
:104D60002046FDF75FFD2046FDF7B8FD024B188099
:104D700010BD00BFDC0D00204614002000284CD0E0
:104D800008B5421E92B2622A1FD9A0F2213292B215
:104D9000632A22D9A0F2A56292B2632A25D9A0F68D
:104DA000611292B2632A28D9A0F6814292B2632A94
:104DB0002BD9A0F6A1739BB2632B0DD8642000F011
:104DC0001DF9164B00221A7006E04FF4967000F0A1
:104DD00015F9124B01221A7008BD4FF4967000F0BD
:104DE0000DF90E4B03221A70F6E74FF4967000F09F
:104DF00005F90A4B05221A70EEE74FF4967000F0A1
:104E0000FDF8064B02221A70E6E74FF4967000F0A8
:104E1000F5F8024B04221A70DEE7704744140020B4
:104E200000B583B0084B93E8030000908DF80410A0
:104E30000522064B1A804FF6FF7369460448FFF7B8
:104E40004CFD03B05DF804FB48C300084814002083
:104E5000FC13002008B5B4214120FCF71BFC08BD61
:104E600008B500214120FCF715FC08BD80B108B54C
:104E7000012804D0022805D0042806D008BDFFF779
:104E8000CFFFFBE7FFF7E6FFF8E7FFF7E9FFF5E7FE
:104E90007047000000B583B0FCF744FBFCF7E4FB6F
:104EA00008213048FCF72EF90124009400237F22CA
:104EB00019461846FCF7F8F9009423467F2221464C
:104EC0000020FCF7F1F900943F2302220021104654
:104ED000FCF7EAF900943F23032200211046FCF777
:104EE000E3F900943F237F2200211046FCF7DCF910
:104EF00000943F237E2200211046FCF7D5F9009450
:104F00003F237F2219460020FCF7CEF900943E2370
:104F10007F2219460020FCF7C7F9134A2146204694
:104F2000FCF7D5FA114B9A6B92B2114D2A800523EA
:104F3000009300230B212046FCF766FA0D4A214618
:104F40002046FCF7C4FAFFF705FF2888FFF716FF95
:104F5000094B1878FFF78AFFFCF71AF90A2000F0CE
:104F60004DF89DE70018024050C30008000C0040B7
:104F7000461400205CC3000844140020842801D09B
:104F8000033070470020704708B500F033FD002063
:104F900008BD2DE9F04387B004460F464569BDB111
:104FA0008669AEB1D0F80480D0F80090B0F908005E
:104FB000FFF7E4FF0296019500903B4622694946BF
:104FC000404600F0A7FC0590059807B0BDE8F083C7
:104FD00065682668D4F81080B4F90800FFF7CEFFA2
:104FE00005AB019300903B461FFA88F231462846F4
:104FF00000F0CBFC0128E7D00020E6E708B500B9B7
:10500000012000F041FE002008BD00F108034360CC
:105010004FF0FF328260C36003610023036070477A
:1050200000230361704743684B609A688A6051604F
:1050300099600861036801330360704730B40D68FC
:10504000B5F1FF3F11D000F108031C465B681A68F8
:10505000AA42FAD963684B6099608C60616008610C
:1050600003680133036030BC70470469F2E70369E9
:10507000416882688A60416851605A68824206D0FD
:10508000002202611A68013A1A6018687047826843
:105090005A60F5E782B0002301930D4B1B68B3F112
:1050A000FF3F08D04FF0500383F31188BFF36F8F99
:1050B000BFF34F8FFEE74FF0500383F31188BFF328
:1050C0006F8FBFF34F8F019B002BFCD002B0704756
:1050D0000C00002008480068006880F308884FF042
:1050E000000080F3148862B661B6BFF34F8FBFF340
:1050F0006F8F00DF00BF000008ED00E0DFF80C005C
:10510000016841F4700101607047000088ED00E023
:105110004FF0807340F8043C21F0010140F8081C76
:10512000054B40F80C3C40F8202C6FF0020340F88F
:10513000243C4438704700BF955000080000000030
:10514000074B19680868B0E8F04F80F30988BFF38F
:105150006F8F4FF0000080F311887047AFF300802D
:10516000705000204FF0500383F31188BFF36F8F0E
:10517000BFF34F8F0B4A136801331360012B00D02C
:1051800070474FF0E023D3F8043D13F0FF0FF7D042
:105190004FF0500383F31188BFF36F8FBFF34F8F2E
:1051A000FEE700BF0C000020094B1B6843B94FF01D
:1051B000500383F31188BFF36F8FBFF34F8FFEE768
:1051C000013B034A13600BB983F31188704700BF9A
:1051D0000C000020000000000000000000000000A3
:1051E000EFF30980BFF36F8F154B1A681EF0100F95
:1051F00008BF20ED108A20E9F04F10602DE909006A
:105200004FF0500080F31188BFF34F8FBFF36F8FC3
:1052100000F060FD4FF0000080F3118809BC1968B0
:105220000868B0E8F04F1EF0100F08BFB0EC108A0D
:1052300080F30988BFF36F8F704700BFAFF3008022
:105240007050002008B54FF0500383F31188BFF36E
:105250006F8FBFF34F8F00F00FFC28B14FF0E023AA
:105260004FF08052C3F8042D002383F3118808BD4A
:105270004FF0E022002313619361054B1B68054941
:10528000A1FB03139B09013B536107231361704783
:1052900000000020D34D62104FF0E023D3F8002D22
:1052A0003D4B9A421CD04FF0E023D3F8002D3B4BEE
:1052B0009A421ED030B583B0394B1A78D2B20192DF
:1052C000FF221A701B78DBB28DF803309DF8033093
:1052D00003F05003334A1370334B07221A601BE06C
:1052E0004FF0500383F31188BFF36F8FBFF34F8FDD
:1052F000FEE74FF0500383F31188BFF36F8FBFF3C6
:105300004F8FFEE7284A1368013B13609DF8033076
:105310005B00DBB28DF803309DF8033013F0800F93
:10532000F0D1214B1B68032B08D04FF0500383F3BF
:105330001188BFF36F8FBFF34F8FFEE71B021A4A2E
:10534000136003F4E0631360019BDBB2144A137033
:105350004FF0E024D4F8203D43F47003C4F8203D1E
:10536000D4F8203D43F07043C4F8203DFFF780FFA0
:1053700000250E4B1D60FFF7C1FED4F8343F43F00B
:105380004043C4F8343FFFF7A5FE00F0A3FCFFF74D
:1053900081FE284603B030BD71C20F4170C20F417B
:1053A00000E400E04A1400204C1400200C0000200F
:1053B000124A12F0070F1ED0D11D21F00701C1F5CE
:1053C000705313440A460E480260002141601344A2
:1053D000083B23F007030B48036059601960991AD2
:1053E00051601360084B1960084B1960084B4FF06F
:1053F00000421A6070474FF47053E4E754140020E1
:1054000068500020501400205C50002058500020AC
:1054100054500020164B1A461B688342FBD3516838
:1054200002EB010C844509D0416800EB010C634597
:1054300009D00360904219D0106070474068014461
:1054400051601046F0E710B40A4C2468A3420BD018
:105450005B681944416013681B680360904200D088
:1054600010605DF8044B70470460F7E7704700BFB9
:10547000685000205014002070B5054600F0F4FA82
:10548000364B1B68A3B1364B1B681D424ED135B15C
:10549000083515F0070F02D025F007050835002D57
:1054A00046D0304B1B68AB4251D32F4A146804E0FE
:1054B000FFF77EFFE7E722461C466368AB4202D255
:1054C0002368002BF7D1254B1B68A34241D01668F7
:1054D00008362368136063685B1B102B10D96019B2
:1054E00010F0070F08D04FF0500383F31188BFF37B
:1054F0006F8FBFF34F8FFEE743606560FFF78AFF52
:10550000626818490B689B1A0B60184909688B423E
:1055100001D216490B60124B1B68134363600023D2
:105520002360134A13680133136002E0002600E091
:10553000002600F02DFB16F0070F0CD04FF05003A3
:1055400083F31188BFF36F8FBFF34F8FFEE7002601
:10555000EFE70026EDE7304670BD00BF5014002095
:105560005450002058500020685000205C5000200B
:1055700060500020002834D038B50446A0F108055A
:1055800050F8043C174A1268134208D14FF05003F8
:1055900083F31188BFF36F8FBFF34F8FFEE750F88F
:1055A000081C41B14FF0500383F31188BFF36F8F94
:1055B000BFF34F8FFEE723EA020340F8043C00F0FC
:1055C00053FA54F8041C084A13680B441360284625
:1055D000FFF720FF054A13680133136000F0D8FA83
:1055E00038BD7047545000205850002064500020AF
:1055F000084B1B681B6823B9074B4FF0FF321A603A
:105600007047044B1B68DB68DB685A68024B1A6002
:10561000704700BF74500020485100202DE9F0472A
:1056200007469846089DDDF824900A9C266B02F1F7
:105630008042013A06EB820626F0070600293AD09E
:105640008E464FF0000CBCF10F0F0BD81EF80C204B
:1056500004EB0C0383F834201EF80C3013B10CF16A
:10566000010CF0E7002384F84330062D00D906250D
:10567000E56265644FF0000AC4F848A0201DFFF7FA
:10568000CFFC04F11800FFF7CBFC2461C5F107053E
:10569000A5616462C4F84CA084F850A04246394623
:1056A0003046FFF735FD2060B9F1000F01D0C9F891
:1056B0000040BDE8F087002384F83430D5E70000CF
:1056C00038B5002407E004EB840293000E48184428
:1056D000FFF79BFC0134062CF5D90C4D2846FFF74B
:1056E00094FC0B4C2046FFF790FC0A48FFF78DFC1A
:1056F0000948FFF78AFC0948FFF787FC084B1D6043
:10570000084B1C6038BD00BF7C5000201C5100209D
:105710003051002054510020805100206C51002055
:10572000745000207850002010B50446FFF71AFD91
:10573000214A136801331360204B1B685BB1204B77
:105740001B686BB91D4B1B68DA6AE36A9A4207D87B
:105750001A4B1C6004E0194B1C601368012B28D005
:10576000184A136801331360E06A01238340164A24
:1057700011680B43136000EB8000211D134B03EBFA
:105780008000FFF750FCFFF70FFD0D4B1B687BB14E
:105790000A4B1B68DA6AE36A9A4209D24FF0E023A7
:1057A0004FF08052C3F8042DBFF34F8FBFF36F8FBC
:1057B00010BDFFF785FFD3E708510020705000208F
:1057C0006851002014510020185100207C50002006
:1057D00010B5044690F8513063B1012B11D0022B63
:1057E0000ED04FF0500383F31188BFF36F8FBFF3D8
:1057F0004F8FFEE7006BFFF7BDFE2046FFF7BAFEB6
:1058000010BDFFF7B7FEFBE70F4B1B68D3B110B518
:10581000FFF7A8FC0D4BDB68DC68201DFFF727FCB9
:105820000B4A1368013B1360074A1368013B13607E
:10583000FFF7BAFC2046FFF7CBFF034B1B68002B9A
:10584000E6D110BD704700BF0C51002080510020F0
:105850000851002008B5FFF7D7FF074B1B68012B45
:10586000F9D94FF0E0234FF08052C3F8042DBFF375
:105870004F8FBFF36F8FEEE77C50002070B504466A
:105880000D461D4B1E681D4B18680430FFF7EFFBDB
:1058900050B91A4B1B68DA6A012303FA02F218495D
:1058A0000B6823EA02030B60B4F1FF3F0DD03444D0
:1058B000124B1B685C60A64210D9124B18680F4B44
:1058C00019680431FFF7BAFB70BD002DEFD00B4B08
:1058D000196804310C48FFF7A6FBF5E70B4B186875
:1058E000064B19680431FFF7A9FB094B1B68A3425B
:1058F000EAD9074B1C60E7E7945100207050002064
:1059000018510020785000206C5100207450002065
:105910004851002030B587B00B9C7CB10C9DB5B1CF
:1059200054250495049D542D1AD04FF0500383F351
:105930001188BFF36F8FBFF34F8FFEE74FF0500317
:1059400083F31188BFF36F8FBFF34F8FFEE74FF0E4
:10595000500383F31188BFF36F8FBFF34F8FFEE7C0
:10596000049D0C9D2C63022485F85140002403946F
:10597000029505AC01940A9C0094FFF74FFE0C9829
:10598000FFF7D2FE059807B030BD2DE9F04385B092
:105990000746884614461E469000FFF76DFD00B38B
:1059A00081465420FFF768FD0546B0B1C0F830903D
:1059B000E5B1002385F85130039302950D9B0193C7
:1059C0000C9B00933346224641463846FFF726FE9D
:1059D0002846FFF7A9FE012005E04846FFF7CAFD6B
:1059E000E6E74FF0FF3005B0BDE8F0834FF0FF3041
:1059F000F9E7000010B588B000240594069407AAC2
:105A000006A905A8FBF7FEFF059B0293069B0193E1
:105A100000942346079A0E490E48FFF77BFF0E4B72
:105A2000186090B14FF0500383F31188BFF36F8F6C
:105A3000BFF34F8F094B4FF0FF321A60084B012222
:105A40001A60084B1C60FFF727FC08B010BD00BFB0
:105A500068C30008555800084451002048510020F0
:105A60006851002094510020024A136801331360EA
:105A7000704700BF10510020F8B53A4B1B68002B4F
:105A800069D1394B1D6801351D60C5B9374B1B689D
:105A90001B6843B14FF0500383F31188BFF36F8F3E
:105AA000BFF34F8FFEE7314A1168314B1868106021
:105AB0001960304A136801331360FFF799FD2E4BCC
:105AC0001B68AB423DD900272C4B1B68DB6A03EBFC
:105AD00083039A002A4B9B58012B00D90127294B9D
:105AE0001B68002B3CD001273AE001271F4B1B68A5
